{
  "_format": "hh-sol-artifact-1",
  "contractName": "WavePortal",
  "sourceName": "contracts/WavePortal.sol",
  "abi": [
    {
      "inputs": [],
      "stateMutability": "payable",
      "type": "constructor"
    },
    {
      "anonymous": false,
      "inputs": [
        {
          "indexed": true,
          "internalType": "address",
          "name": "from",
          "type": "address"
        },
        {
          "indexed": false,
          "internalType": "uint256",
          "name": "timestamp",
          "type": "uint256"
        },
        {
          "indexed": false,
          "internalType": "string",
          "name": "message",
          "type": "string"
        }
      ],
      "name": "NewWave",
      "type": "event"
    },
    {
      "inputs": [],
      "name": "getAllWaves",
      "outputs": [
        {
          "components": [
            {
              "internalType": "address",
              "name": "waver",
              "type": "address"
            },
            {
              "internalType": "string",
              "name": "message",
              "type": "string"
            },
            {
              "internalType": "uint256",
              "name": "timestamp",
              "type": "uint256"
            }
          ],
          "internalType": "struct WavePortal.Wave[]",
          "name": "",
          "type": "tuple[]"
        }
      ],
      "stateMutability": "view",
      "type": "function"
    },
    {
      "inputs": [],
      "name": "getTotalWaves",
      "outputs": [
        {
          "internalType": "uint256",
          "name": "",
          "type": "uint256"
        }
      ],
      "stateMutability": "view",
      "type": "function"
    },
    {
      "inputs": [
        {
          "internalType": "address",
          "name": "interactor",
          "type": "address"
        }
      ],
      "name": "getWaveCount",
      "outputs": [
        {
          "internalType": "uint256",
          "name": "",
          "type": "uint256"
        }
      ],
      "stateMutability": "view",
      "type": "function"
    },
    {
      "inputs": [
        {
          "internalType": "address",
          "name": "",
          "type": "address"
        }
      ],
      "name": "lastWavedAt",
      "outputs": [
        {
          "internalType": "uint256",
          "name": "",
          "type": "uint256"
        }
      ],
      "stateMutability": "view",
      "type": "function"
    },
    {
      "inputs": [
        {
          "internalType": "string",
          "name": "_message",
          "type": "string"
        }
      ],
      "name": "wave",
      "outputs": [],
      "stateMutability": "nonpayable",
      "type": "function"
    }
  ],
  "bytecode": "0x60806040526200004f6040518060400160405280601981526020017f57652068617665206265656e20636f6e737472756374656421000000000000008152506200007760201b6200074c1760201c565b606444426200005f9190620001c4565b6200006b919062000265565b6002819055506200030c565b62000117816040516024016200008e919062000184565b6040516020818303038152906040527f41304fac000000000000000000000000000000000000000000000000000000007bffffffffffffffffffffffffffffffffffffffffffffffffffffffff19166020820180517bffffffffffffffffffffffffffffffffffffffffffffffffffffffff83818316178352505050506200011a60201b60201c565b50565b60008151905060006a636f6e736f6c652e6c6f679050602083016000808483855afa5050505050565b60006200015082620001a8565b6200015c8185620001b3565b93506200016e8185602086016200022f565b6200017981620002fb565b840191505092915050565b60006020820190508181036000830152620001a0818462000143565b905092915050565b600081519050919050565b600082825260208201905092915050565b6000620001d18262000225565b9150620001de8362000225565b9250817fffffffffffffffffffffffffffffffffffffffffffffffffffffffffffffffff04831182151516156200021a57620002196200029d565b5b828202905092915050565b6000819050919050565b60005b838110156200024f57808201518184015260208101905062000232565b838111156200025f576000848401525b50505050565b6000620002728262000225565b91506200027f8362000225565b925082620002925762000291620002cc565b5b828206905092915050565b7f4e487b7100000000000000000000000000000000000000000000000000000000600052601160045260246000fd5b7f4e487b7100000000000000000000000000000000000000000000000000000000600052601260045260246000fd5b6000601f19601f8301169050919050565b611375806200031c6000396000f3fe608060405234801561001057600080fd5b50600436106100575760003560e01c8063449d46c01461005c5780635b2ae087146100785780639a2cdc08146100a8578063a42a4663146100c6578063bd43a908146100f6575b600080fd5b61007660048036038101906100719190610b31565b610114565b005b610092600480360381019061008d9190610b08565b610510565b60405161009f9190610ef1565b60405180910390f35b6100b06105d6565b6040516100bd9190610ef1565b60405180910390f35b6100e060048036038101906100db9190610b08565b6105e3565b6040516100ed9190610ef1565b60405180910390f35b6100fe6105fb565b60405161010b9190610d9a565b60405180910390f35b4262015180600160003373ffffffffffffffffffffffffffffffffffffffff1673ffffffffffffffffffffffffffffffffffffffff168152602001908152602001600020546101639190611003565b106101a3576040517f08c379a000000000000000000000000000000000000000000000000000000000815260040161019a90610e91565b60405180910390fd5b42600160003373ffffffffffffffffffffffffffffffffffffffff1673ffffffffffffffffffffffffffffffffffffffff168152602001908152602001600020819055506102276040518060400160405280601881526020017f25732077617665642077697468206d657373616765202573000000000000000081525033836107e5565b600360405180606001604052803373ffffffffffffffffffffffffffffffffffffffff16815260200183815260200142815250908060018154018082558091505060019003906000526020600020906003020160009091909190915060008201518160000160006101000a81548173ffffffffffffffffffffffffffffffffffffffff021916908373ffffffffffffffffffffffffffffffffffffffff16021790555060208201518160010190805190602001906102e69291906109e8565b5060408201518160020155505060016000803373ffffffffffffffffffffffffffffffffffffffff1673ffffffffffffffffffffffffffffffffffffffff16815260200190815260200160002060008282546103429190611003565b925050819055506064600254424461035a9190611003565b6103649190611003565b61036e919061113a565b6002819055506103b56040518060400160405280601681526020017f52616e646f6d20232067656e6572617465643a20256400000000000000000000815250600254610884565b603260025410156104bd576000655af3107a400090504781111561040e576040517f08c379a000000000000000000000000000000000000000000000000000000000815260040161040590610eb1565b60405180910390fd5b60003373ffffffffffffffffffffffffffffffffffffffff168260405161043490610d85565b60006040518083038185875af1925050503d8060008114610471576040519150601f19603f3d011682016040523d82523d6000602084013e610476565b606091505b50509050806104ba576040517f08c379a00000000000000000000000000000000000000000000000000000000081526004016104b190610ed1565b60405180910390fd5b50505b3373ffffffffffffffffffffffffffffffffffffffff167f5f7e16dc676677766a70e9c5628aa6c54ddb8b6e5188e2ae1e1f17f1ffbea7164283604051610505929190610f0c565b60405180910390a250565b60006105906040518060400160405280601881526020017f2573206861732077617665642025642074696d65287329210000000000000000815250836000808673ffffffffffffffffffffffffffffffffffffffff1673ffffffffffffffffffffffffffffffffffffffff16815260200190815260200160002054610920565b6000808373ffffffffffffffffffffffffffffffffffffffff1673ffffffffffffffffffffffffffffffffffffffff168152602001908152602001600020549050919050565b6000600380549050905090565b60016020528060005260406000206000915090505481565b60606003805480602002602001604051908101604052809291908181526020016000905b8282101561074357838290600052602060002090600302016040518060600160405290816000820160009054906101000a900473ffffffffffffffffffffffffffffffffffffffff1673ffffffffffffffffffffffffffffffffffffffff1673ffffffffffffffffffffffffffffffffffffffff1681526020016001820180546106a8906110d7565b80601f01602080910402602001604051908101604052809291908181526020018280546106d4906110d7565b80156107215780601f106106f657610100808354040283529160200191610721565b820191906000526020600020905b81548152906001019060200180831161070457829003601f168201915b505050505081526020016002820154815250508152602001906001019061061f565b50505050905090565b6107e2816040516024016107609190610dbc565b6040516020818303038152906040527f41304fac000000000000000000000000000000000000000000000000000000007bffffffffffffffffffffffffffffffffffffffffffffffffffffffff19166020820180517bffffffffffffffffffffffffffffffffffffffffffffffffffffffff83818316178352505050506109bf565b50565b61087f8383836040516024016107fd93929190610dde565b6040516020818303038152906040527fe0e9ad4f000000000000000000000000000000000000000000000000000000007bffffffffffffffffffffffffffffffffffffffffffffffffffffffff19166020820180517bffffffffffffffffffffffffffffffffffffffffffffffffffffffff83818316178352505050506109bf565b505050565b61091c828260405160240161089a929190610e61565b6040516020818303038152906040527f9710a9d0000000000000000000000000000000000000000000000000000000007bffffffffffffffffffffffffffffffffffffffffffffffffffffffff19166020820180517bffffffffffffffffffffffffffffffffffffffffffffffffffffffff83818316178352505050506109bf565b5050565b6109ba83838360405160240161093893929190610e23565b6040516020818303038152906040527f07c81217000000000000000000000000000000000000000000000000000000007bffffffffffffffffffffffffffffffffffffffffffffffffffffffff19166020820180517bffffffffffffffffffffffffffffffffffffffffffffffffffffffff83818316178352505050506109bf565b505050565b60008151905060006a636f6e736f6c652e6c6f679050602083016000808483855afa5050505050565b8280546109f4906110d7565b90600052602060002090601f016020900481019282610a165760008555610a5d565b82601f10610a2f57805160ff1916838001178555610a5d565b82800160010185558215610a5d579182015b82811115610a5c578251825591602001919060010190610a41565b5b509050610a6a9190610a6e565b5090565b5b80821115610a87576000816000905550600101610a6f565b5090565b6000610a9e610a9984610f61565b610f3c565b905082815260208101848484011115610ab657600080fd5b610ac1848285611095565b509392505050565b600081359050610ad881611328565b92915050565b600082601f830112610aef57600080fd5b8135610aff848260208601610a8b565b91505092915050565b600060208284031215610b1a57600080fd5b6000610b2884828501610ac9565b91505092915050565b600060208284031215610b4357600080fd5b600082013567ffffffffffffffff811115610b5d57600080fd5b610b6984828501610ade565b91505092915050565b6000610b7e8383610d17565b905092915050565b610b8f81611059565b82525050565b610b9e81611059565b82525050565b6000610baf82610fa2565b610bb98185610fc5565b935083602082028501610bcb85610f92565b8060005b85811015610c075784840389528151610be88582610b72565b9450610bf383610fb8565b925060208a01995050600181019050610bcf565b50829750879550505050505092915050565b6000610c2482610fad565b610c2e8185610fe1565b9350610c3e8185602086016110a4565b610c4781611227565b840191505092915050565b6000610c5d82610fad565b610c678185610ff2565b9350610c778185602086016110a4565b610c8081611227565b840191505092915050565b6000610c98602683610ff2565b9150610ca382611238565b604082019050919050565b6000610cbb603383610ff2565b9150610cc682611287565b604082019050919050565b6000610cde602683610ff2565b9150610ce9826112d6565b604082019050919050565b6000610d01600083610fd6565b9150610d0c82611325565b600082019050919050565b6000606083016000830151610d2f6000860182610b86565b5060208301518482036020860152610d478282610c19565b9150506040830151610d5c6040860182610d67565b508091505092915050565b610d708161108b565b82525050565b610d7f8161108b565b82525050565b6000610d9082610cf4565b9150819050919050565b60006020820190508181036000830152610db48184610ba4565b905092915050565b60006020820190508181036000830152610dd68184610c52565b905092915050565b60006060820190508181036000830152610df88186610c52565b9050610e076020830185610b95565b8181036040830152610e198184610c52565b9050949350505050565b60006060820190508181036000830152610e3d8186610c52565b9050610e4c6020830185610b95565b610e596040830184610d76565b949350505050565b60006040820190508181036000830152610e7b8185610c52565b9050610e8a6020830184610d76565b9392505050565b60006020820190508181036000830152610eaa81610c8b565b9050919050565b60006020820190508181036000830152610eca81610cae565b9050919050565b60006020820190508181036000830152610eea81610cd1565b9050919050565b6000602082019050610f066000830184610d76565b92915050565b6000604082019050610f216000830185610d76565b8181036020830152610f338184610c52565b90509392505050565b6000610f46610f57565b9050610f528282611109565b919050565b6000604051905090565b600067ffffffffffffffff821115610f7c57610f7b6111f8565b5b610f8582611227565b9050602081019050919050565b6000819050602082019050919050565b600081519050919050565b600081519050919050565b6000602082019050919050565b600082825260208201905092915050565b600081905092915050565b600082825260208201905092915050565b600082825260208201905092915050565b600061100e8261108b565b91506110198361108b565b9250827fffffffffffffffffffffffffffffffffffffffffffffffffffffffffffffffff0382111561104e5761104d61116b565b5b828201905092915050565b60006110648261106b565b9050919050565b600073ffffffffffffffffffffffffffffffffffffffff82169050919050565b6000819050919050565b82818337600083830152505050565b60005b838110156110c25780820151818401526020810190506110a7565b838111156110d1576000848401525b50505050565b600060028204905060018216806110ef57607f821691505b60208210811415611103576111026111c9565b5b50919050565b61111282611227565b810181811067ffffffffffffffff82111715611131576111306111f8565b5b80604052505050565b60006111458261108b565b91506111508361108b565b9250826111605761115f61119a565b5b828206905092915050565b7f4e487b7100000000000000000000000000000000000000000000000000000000600052601160045260246000fd5b7f4e487b7100000000000000000000000000000000000000000000000000000000600052601260045260246000fd5b7f4e487b7100000000000000000000000000000000000000000000000000000000600052602260045260246000fd5b7f4e487b7100000000000000000000000000000000000000000000000000000000600052604160045260246000fd5b6000601f19601f8301169050919050565b7f32342d687220636f6f6c2d646f776e20666f722074686973207761766572206160008201527f6374697665210000000000000000000000000000000000000000000000000000602082015250565b7f547279696e6720746f207769746864726177206d6f7265206d6f6e657974686160008201527f6e2074686520636f6e7472616374206861732e00000000000000000000000000602082015250565b7f4661696c656420746f207769746864726177206d6f6e65792066726f6d20636f60008201527f6e74726163740000000000000000000000000000000000000000000000000000602082015250565b50565b61133181611059565b811461133c57600080fd5b5056fea2646970667358221220c949e2e5fc14fd72f277c7790202c61a3c3957df704c4f45c187e37e65ac60ed64736f6c63430008040033",
  "linkReferences": {},
  "deployedLinkReferences": {}
}